{
  "contractName": "HMSTests",
  "abi": [
    {
      "inputs": [],
      "payable": false,
      "stateMutability": "nonpayable",
      "type": "constructor"
    },
    {
      "anonymous": false,
      "inputs": [
        {
          "indexed": false,
          "internalType": "uint256",
          "name": "tst_bloodG_id",
          "type": "uint256"
        },
        {
          "indexed": false,
          "internalType": "uint256",
          "name": "prescription_id",
          "type": "uint256"
        },
        {
          "indexed": false,
          "internalType": "string",
          "name": "bloodGroup",
          "type": "string"
        },
        {
          "indexed": false,
          "internalType": "string",
          "name": "rhesusD",
          "type": "string"
        },
        {
          "indexed": false,
          "internalType": "uint256",
          "name": "appointment_id",
          "type": "uint256"
        },
        {
          "indexed": false,
          "internalType": "uint256",
          "name": "date",
          "type": "uint256"
        }
      ],
      "name": "BloodGroupingRhCreated",
      "type": "event"
    },
    {
      "constant": true,
      "inputs": [],
      "name": "CreatedTestBy",
      "outputs": [
        {
          "internalType": "address",
          "name": "",
          "type": "address"
        }
      ],
      "payable": false,
      "stateMutability": "view",
      "type": "function"
    },
    {
      "constant": true,
      "inputs": [
        {
          "internalType": "uint256",
          "name": "",
          "type": "uint256"
        }
      ],
      "name": "GetBloodGroupingRhList",
      "outputs": [
        {
          "internalType": "uint256",
          "name": "tst_bloodG_id",
          "type": "uint256"
        },
        {
          "internalType": "uint256",
          "name": "prescription_id",
          "type": "uint256"
        },
        {
          "internalType": "string",
          "name": "bloodGroup",
          "type": "string"
        },
        {
          "internalType": "string",
          "name": "rhesusD",
          "type": "string"
        },
        {
          "internalType": "uint256",
          "name": "appointment_id",
          "type": "uint256"
        },
        {
          "internalType": "uint256",
          "name": "date",
          "type": "uint256"
        }
      ],
      "payable": false,
      "stateMutability": "view",
      "type": "function"
    },
    {
      "constant": true,
      "inputs": [
        {
          "internalType": "uint256",
          "name": "",
          "type": "uint256"
        }
      ],
      "name": "GetBloodGroupingRh_Id",
      "outputs": [
        {
          "internalType": "uint256",
          "name": "tst_bloodG_id",
          "type": "uint256"
        },
        {
          "internalType": "uint256",
          "name": "prescription_id",
          "type": "uint256"
        },
        {
          "internalType": "string",
          "name": "bloodGroup",
          "type": "string"
        },
        {
          "internalType": "string",
          "name": "rhesusD",
          "type": "string"
        },
        {
          "internalType": "uint256",
          "name": "appointment_id",
          "type": "uint256"
        },
        {
          "internalType": "uint256",
          "name": "date",
          "type": "uint256"
        }
      ],
      "payable": false,
      "stateMutability": "view",
      "type": "function"
    },
    {
      "constant": true,
      "inputs": [
        {
          "internalType": "uint256",
          "name": "",
          "type": "uint256"
        }
      ],
      "name": "GetLipidTestList",
      "outputs": [
        {
          "internalType": "uint256",
          "name": "tst_li_id",
          "type": "uint256"
        },
        {
          "internalType": "uint256",
          "name": "prescription_id",
          "type": "uint256"
        },
        {
          "internalType": "string",
          "name": "cholestrolHDL",
          "type": "string"
        },
        {
          "internalType": "string",
          "name": "cholestrolLDL",
          "type": "string"
        },
        {
          "internalType": "string",
          "name": "triglycerides",
          "type": "string"
        },
        {
          "internalType": "string",
          "name": "totalCholestrolLDLHDLratio",
          "type": "string"
        },
        {
          "internalType": "uint256",
          "name": "appointment_id",
          "type": "uint256"
        },
        {
          "internalType": "uint256",
          "name": "date",
          "type": "uint256"
        }
      ],
      "payable": false,
      "stateMutability": "view",
      "type": "function"
    },
    {
      "constant": true,
      "inputs": [
        {
          "internalType": "uint256",
          "name": "",
          "type": "uint256"
        }
      ],
      "name": "GetLipidTest_Id",
      "outputs": [
        {
          "internalType": "uint256",
          "name": "tst_li_id",
          "type": "uint256"
        },
        {
          "internalType": "uint256",
          "name": "prescription_id",
          "type": "uint256"
        },
        {
          "internalType": "string",
          "name": "cholestrolHDL",
          "type": "string"
        },
        {
          "internalType": "string",
          "name": "cholestrolLDL",
          "type": "string"
        },
        {
          "internalType": "string",
          "name": "triglycerides",
          "type": "string"
        },
        {
          "internalType": "string",
          "name": "totalCholestrolLDLHDLratio",
          "type": "string"
        },
        {
          "internalType": "uint256",
          "name": "appointment_id",
          "type": "uint256"
        },
        {
          "internalType": "uint256",
          "name": "date",
          "type": "uint256"
        }
      ],
      "payable": false,
      "stateMutability": "view",
      "type": "function"
    },
    {
      "constant": true,
      "inputs": [
        {
          "internalType": "string",
          "name": "",
          "type": "string"
        },
        {
          "internalType": "uint256",
          "name": "",
          "type": "uint256"
        }
      ],
      "name": "PatientBloodGroupingRhRecord",
      "outputs": [
        {
          "internalType": "uint256",
          "name": "tst_bloodG_id",
          "type": "uint256"
        },
        {
          "internalType": "uint256",
          "name": "prescription_id",
          "type": "uint256"
        },
        {
          "internalType": "string",
          "name": "bloodGroup",
          "type": "string"
        },
        {
          "internalType": "string",
          "name": "rhesusD",
          "type": "string"
        },
        {
          "internalType": "uint256",
          "name": "appointment_id",
          "type": "uint256"
        },
        {
          "internalType": "uint256",
          "name": "date",
          "type": "uint256"
        }
      ],
      "payable": false,
      "stateMutability": "view",
      "type": "function"
    },
    {
      "constant": true,
      "inputs": [
        {
          "internalType": "string",
          "name": "",
          "type": "string"
        },
        {
          "internalType": "uint256",
          "name": "",
          "type": "uint256"
        }
      ],
      "name": "PatientLapidTestRecord",
      "outputs": [
        {
          "internalType": "uint256",
          "name": "tst_li_id",
          "type": "uint256"
        },
        {
          "internalType": "uint256",
          "name": "prescription_id",
          "type": "uint256"
        },
        {
          "internalType": "string",
          "name": "cholestrolHDL",
          "type": "string"
        },
        {
          "internalType": "string",
          "name": "cholestrolLDL",
          "type": "string"
        },
        {
          "internalType": "string",
          "name": "triglycerides",
          "type": "string"
        },
        {
          "internalType": "string",
          "name": "totalCholestrolLDLHDLratio",
          "type": "string"
        },
        {
          "internalType": "uint256",
          "name": "appointment_id",
          "type": "uint256"
        },
        {
          "internalType": "uint256",
          "name": "date",
          "type": "uint256"
        }
      ],
      "payable": false,
      "stateMutability": "view",
      "type": "function"
    },
    {
      "constant": true,
      "inputs": [],
      "name": "bloodtestCount",
      "outputs": [
        {
          "internalType": "uint256",
          "name": "",
          "type": "uint256"
        }
      ],
      "payable": false,
      "stateMutability": "view",
      "type": "function"
    },
    {
      "constant": true,
      "inputs": [],
      "name": "lipidtestCount",
      "outputs": [
        {
          "internalType": "uint256",
          "name": "",
          "type": "uint256"
        }
      ],
      "payable": false,
      "stateMutability": "view",
      "type": "function"
    },
    {
      "constant": true,
      "inputs": [],
      "name": "testCount",
      "outputs": [
        {
          "internalType": "uint256",
          "name": "",
          "type": "uint256"
        }
      ],
      "payable": false,
      "stateMutability": "view",
      "type": "function"
    },
    {
      "constant": true,
      "inputs": [],
      "name": "title",
      "outputs": [
        {
          "internalType": "string",
          "name": "",
          "type": "string"
        }
      ],
      "payable": false,
      "stateMutability": "view",
      "type": "function"
    },
    {
      "constant": false,
      "inputs": [
        {
          "internalType": "string",
          "name": "_patientUserId",
          "type": "string"
        },
        {
          "internalType": "uint256",
          "name": "_prescription_id",
          "type": "uint256"
        },
        {
          "internalType": "string",
          "name": "_cholestrolHDL",
          "type": "string"
        },
        {
          "internalType": "string",
          "name": "_cholestrolLDL",
          "type": "string"
        },
        {
          "internalType": "string",
          "name": "_triglycerides",
          "type": "string"
        },
        {
          "internalType": "string",
          "name": "_totalCholestrolLDLHDLratio",
          "type": "string"
        },
        {
          "internalType": "uint256",
          "name": "_appointment_id",
          "type": "uint256"
        }
      ],
      "name": "AddLipidTest",
      "outputs": [],
      "payable": false,
      "stateMutability": "nonpayable",
      "type": "function"
    },
    {
      "constant": false,
      "inputs": [
        {
          "internalType": "string",
          "name": "_patientUserId",
          "type": "string"
        },
        {
          "internalType": "uint256",
          "name": "_prescription_id",
          "type": "uint256"
        },
        {
          "internalType": "string",
          "name": "_bloodGroup",
          "type": "string"
        },
        {
          "internalType": "string",
          "name": "_rhesusD",
          "type": "string"
        },
        {
          "internalType": "uint256",
          "name": "_appointment_id",
          "type": "uint256"
        }
      ],
      "name": "AddBloodGroupingRh",
      "outputs": [],
      "payable": false,
      "stateMutability": "nonpayable",
      "type": "function"
    }
  ],
  "bytecode": "0x60806040526000600255600060035560006004553480156200002057600080fd5b506040518060400160405280601f81526020017f5468697320484d53206973206261736564206f6e20426c6f636b636861696e00815250600090805190602001906200006e929190620000b6565b5033600160006101000a81548173ffffffffffffffffffffffffffffffffffffffff021916908373ffffffffffffffffffffffffffffffffffffffff16021790555062000165565b828054600181600116156101000203166002900490600052602060002090601f016020900481019282601f10620000f957805160ff19168380011785556200012a565b828001600101855582156200012a579182015b82811115620001295782518255916020019190600101906200010c565b5b5090506200013991906200013d565b5090565b6200016291905b808211156200015e57600081600090555060010162000144565b5090565b90565b61271580620001756000396000f3fe608060405234801561001057600080fd5b50600436106100cf5760003560e01c8063845e8b6f1161008c578063aaacd73511610066578063aaacd73514610cd9578063b2fd47f814610e9f578063ef679f6714610fce578063f39929c514610fec576100cf565b8063845e8b6f146107895780639590d4b914610990578063974ae2de146109ae576100cf565b8063292f8eb7146100d4578063299725c3146100f2578063336cc829146103905780633ac7093b146103da5780634a79d50c1461050957806379e7b2731461058c575b600080fd5b6100dc6111f3565b6040518082815260200191505060405180910390f35b6101b56004803603604081101561010857600080fd5b810190808035906020019064010000000081111561012557600080fd5b82018360208201111561013757600080fd5b8035906020019184600183028401116401000000008311171561015957600080fd5b91908080601f016020809104026020016040519081016040528093929190818152602001838380828437600081840152601f19601f820116905080830192505050505050509192919290803590602001909291905050506111f9565b604051808981526020018881526020018060200180602001806020018060200187815260200186815260200185810385528b818151815260200191508051906020019080838360005b838110156102195780820151818401526020810190506101fe565b50505050905090810190601f1680156102465780820380516001836020036101000a031916815260200191505b5085810384528a818151815260200191508051906020019080838360005b8381101561027f578082015181840152602081019050610264565b50505050905090810190601f1680156102ac5780820380516001836020036101000a031916815260200191505b50858103835289818151815260200191508051906020019080838360005b838110156102e55780820151818401526020810190506102ca565b50505050905090810190601f1680156103125780820380516001836020036101000a031916815260200191505b50858103825288818151815260200191508051906020019080838360005b8381101561034b578082015181840152602081019050610330565b50505050905090810190601f1680156103785780820380516001836020036101000a031916815260200191505b509c5050505050505050505050505060405180910390f35b6103986114c4565b604051808273ffffffffffffffffffffffffffffffffffffffff1673ffffffffffffffffffffffffffffffffffffffff16815260200191505060405180910390f35b610406600480360360208110156103f057600080fd5b81019080803590602001909291905050506114ea565b604051808781526020018681526020018060200180602001858152602001848152602001838103835287818151815260200191508051906020019080838360005b83811015610462578082015181840152602081019050610447565b50505050905090810190601f16801561048f5780820380516001836020036101000a031916815260200191505b50838103825286818151815260200191508051906020019080838360005b838110156104c85780820151818401526020810190506104ad565b50505050905090810190601f1680156104f55780820380516001836020036101000a031916815260200191505b509850505050505050505060405180910390f35b610511611656565b6040518080602001828103825283818151815260200191508051906020019080838360005b83811015610551578082015181840152602081019050610536565b50505050905090810190601f16801561057e5780820380516001836020036101000a031916815260200191505b509250505060405180910390f35b610787600480360360a08110156105a257600080fd5b81019080803590602001906401000000008111156105bf57600080fd5b8201836020820111156105d157600080fd5b803590602001918460018302840111640100000000831117156105f357600080fd5b91908080601f016020809104026020016040519081016040528093929190818152602001838380828437600081840152601f19601f820116905080830192505050505050509192919290803590602001909291908035906020019064010000000081111561066057600080fd5b82018360208201111561067257600080fd5b8035906020019184600183028401116401000000008311171561069457600080fd5b91908080601f016020809104026020016040519081016040528093929190818152602001838380828437600081840152601f19601f820116905080830192505050505050509192919290803590602001906401000000008111156106f757600080fd5b82018360208201111561070957600080fd5b8035906020019184600183028401116401000000008311171561072b57600080fd5b91908080601f016020809104026020016040519081016040528093929190818152602001838380828437600081840152601f19601f820116905080830192505050505050509192919290803590602001909291905050506116f4565b005b6107b56004803603602081101561079f57600080fd5b8101908080359060200190929190505050611a96565b604051808981526020018881526020018060200180602001806020018060200187815260200186815260200185810385528b818151815260200191508051906020019080838360005b838110156108195780820151818401526020810190506107fe565b50505050905090810190601f1680156108465780820380516001836020036101000a031916815260200191505b5085810384528a818151815260200191508051906020019080838360005b8381101561087f578082015181840152602081019050610864565b50505050905090810190601f1680156108ac5780820380516001836020036101000a031916815260200191505b50858103835289818151815260200191508051906020019080838360005b838110156108e55780820151818401526020810190506108ca565b50505050905090810190601f1680156109125780820380516001836020036101000a031916815260200191505b50858103825288818151815260200191508051906020019080838360005b8381101561094b578082015181840152602081019050610930565b50505050905090810190601f1680156109785780820380516001836020036101000a031916815260200191505b509c5050505050505050505050505060405180910390f35b610998611d3e565b6040518082815260200191505060405180910390f35b610cd7600480360360e08110156109c457600080fd5b81019080803590602001906401000000008111156109e157600080fd5b8201836020820111156109f357600080fd5b80359060200191846001830284011164010000000083111715610a1557600080fd5b91908080601f016020809104026020016040519081016040528093929190818152602001838380828437600081840152601f19601f8201169050808301925050505050505091929192908035906020019092919080359060200190640100000000811115610a8257600080fd5b820183602082011115610a9457600080fd5b80359060200191846001830284011164010000000083111715610ab657600080fd5b91908080601f016020809104026020016040519081016040528093929190818152602001838380828437600081840152601f19601f82011690508083019250505050505050919291929080359060200190640100000000811115610b1957600080fd5b820183602082011115610b2b57600080fd5b80359060200191846001830284011164010000000083111715610b4d57600080fd5b91908080601f016020809104026020016040519081016040528093929190818152602001838380828437600081840152601f19601f82011690508083019250505050505050919291929080359060200190640100000000811115610bb057600080fd5b820183602082011115610bc257600080fd5b80359060200191846001830284011164010000000083111715610be457600080fd5b91908080601f016020809104026020016040519081016040528093929190818152602001838380828437600081840152601f19601f82011690508083019250505050505050919291929080359060200190640100000000811115610c4757600080fd5b820183602082011115610c5957600080fd5b80359060200191846001830284011164010000000083111715610c7b57600080fd5b91908080601f016020809104026020016040519081016040528093929190818152602001838380828437600081840152601f19601f82011690508083019250505050505050919291929080359060200190929190505050611d44565b005b610d9c60048036036040811015610cef57600080fd5b8101908080359060200190640100000000811115610d0c57600080fd5b820183602082011115610d1e57600080fd5b80359060200191846001830284011164010000000083111715610d4057600080fd5b91908080601f016020809104026020016040519081016040528093929190818152602001838380828437600081840152601f19601f82011690508083019250505050505050919291929080359060200190929190505050612092565b604051808781526020018681526020018060200180602001858152602001848152602001838103835287818151815260200191508051906020019080838360005b83811015610df8578082015181840152602081019050610ddd565b50505050905090810190601f168015610e255780820380516001836020036101000a031916815260200191505b50838103825286818151815260200191508051906020019080838360005b83811015610e5e578082015181840152602081019050610e43565b50505050905090810190601f168015610e8b5780820380516001836020036101000a031916815260200191505b509850505050505050505060405180910390f35b610ecb60048036036020811015610eb557600080fd5b8101908080359060200190929190505050612221565b604051808781526020018681526020018060200180602001858152602001848152602001838103835287818151815260200191508051906020019080838360005b83811015610f27578082015181840152602081019050610f0c565b50505050905090810190601f168015610f545780820380516001836020036101000a031916815260200191505b50838103825286818151815260200191508051906020019080838360005b83811015610f8d578082015181840152602081019050610f72565b50505050905090810190601f168015610fba5780820380516001836020036101000a031916815260200191505b509850505050505050505060405180910390f35b610fd661238d565b6040518082815260200191505060405180910390f35b6110186004803603602081101561100257600080fd5b8101908080359060200190929190505050612393565b604051808981526020018881526020018060200180602001806020018060200187815260200186815260200185810385528b818151815260200191508051906020019080838360005b8381101561107c578082015181840152602081019050611061565b50505050905090810190601f1680156110a95780820380516001836020036101000a031916815260200191505b5085810384528a818151815260200191508051906020019080838360005b838110156110e25780820151818401526020810190506110c7565b50505050905090810190601f16801561110f5780820380516001836020036101000a031916815260200191505b50858103835289818151815260200191508051906020019080838360005b8381101561114857808201518184015260208101905061112d565b50505050905090810190601f1680156111755780820380516001836020036101000a031916815260200191505b50858103825288818151815260200191508051906020019080838360005b838110156111ae578082015181840152602081019050611193565b50505050905090810190601f1680156111db5780820380516001836020036101000a031916815260200191505b509c5050505050505050505050505060405180910390f35b60045481565b60078280516020810182018051848252602083016020850120818352809550505050505060205280600052604060002060009150915050806000015490806001015490806002018054600181600116156101000203166002900480601f0160208091040260200160405190810160405280929190818152602001828054600181600116156101000203166002900480156112d45780601f106112a9576101008083540402835291602001916112d4565b820191906000526020600020905b8154815290600101906020018083116112b757829003601f168201915b505050505090806003018054600181600116156101000203166002900480601f0160208091040260200160405190810160405280929190818152602001828054600181600116156101000203166002900480156113725780601f1061134757610100808354040283529160200191611372565b820191906000526020600020905b81548152906001019060200180831161135557829003601f168201915b505050505090806004018054600181600116156101000203166002900480601f0160208091040260200160405190810160405280929190818152602001828054600181600116156101000203166002900480156114105780601f106113e557610100808354040283529160200191611410565b820191906000526020600020905b8154815290600101906020018083116113f357829003601f168201915b505050505090806005018054600181600116156101000203166002900480601f0160208091040260200160405190810160405280929190818152602001828054600181600116156101000203166002900480156114ae5780601f10611483576101008083540402835291602001916114ae565b820191906000526020600020905b81548152906001019060200180831161149157829003601f168201915b5050505050908060060154908060070154905088565b600160009054906101000a900473ffffffffffffffffffffffffffffffffffffffff1681565b6008602052806000526040600020600091509050806000015490806001015490806002018054600181600116156101000203166002900480601f0160208091040260200160405190810160405280929190818152602001828054600181600116156101000203166002900480156115a25780601f10611577576101008083540402835291602001916115a2565b820191906000526020600020905b81548152906001019060200180831161158557829003601f168201915b505050505090806003018054600181600116156101000203166002900480601f0160208091040260200160405190810160405280929190818152602001828054600181600116156101000203166002900480156116405780601f1061161557610100808354040283529160200191611640565b820191906000526020600020905b81548152906001019060200180831161162357829003601f168201915b5050505050908060040154908060050154905086565b60008054600181600116156101000203166002900480601f0160208091040260200160405190810160405280929190818152602001828054600181600116156101000203166002900480156116ec5780601f106116c1576101008083540402835291602001916116ec565b820191906000526020600020905b8154815290600101906020018083116116cf57829003601f168201915b505050505081565b6004600081548092919060010191905055506040518060c001604052806004548152602001858152602001848152602001838152602001828152602001428152506008600060045481526020019081526020016000206000820151816000015560208201518160010155604082015181600201908051906020019061177a92919061263b565b50606082015181600301908051906020019061179792919061263b565b506080820151816004015560a082015181600501559050506040518060c00160405280600454815260200185815260200184815260200183815260200182815260200142815250600960008381526020019081526020016000206000820151816000015560208201518160010155604082015181600201908051906020019061182192919061263b565b50606082015181600301908051906020019061183e92919061263b565b506080820151816004015560a082015181600501559050506040518060c00160405280600454815260200185815260200184815260200183815260200182815260200142815250600a866040518082805190602001908083835b602083106118bb5780518252602082019150602081019050602083039250611898565b6001836020036101000a038019825116818451168082178552505050505050905001915050908152602001604051809103902060008381526020019081526020016000206000820151816000015560208201518160010155604082015181600201908051906020019061192f92919061263b565b50606082015181600301908051906020019061194c92919061263b565b506080820151816004015560a082015181600501559050507f763e30af0cfa67aa8e8fd0e36f34fd1f8d309dff177a5a86b3e643723bf8e47c6002548585858542604051808781526020018681526020018060200180602001858152602001848152602001838103835287818151815260200191508051906020019080838360005b838110156119e95780820151818401526020810190506119ce565b50505050905090810190601f168015611a165780820380516001836020036101000a031916815260200191505b50838103825286818151815260200191508051906020019080838360005b83811015611a4f578082015181840152602081019050611a34565b50505050905090810190601f168015611a7c5780820380516001836020036101000a031916815260200191505b509850505050505050505060405180910390a15050505050565b6006602052806000526040600020600091509050806000015490806001015490806002018054600181600116156101000203166002900480601f016020809104026020016040519081016040528092919081815260200182805460018160011615610100020316600290048015611b4e5780601f10611b2357610100808354040283529160200191611b4e565b820191906000526020600020905b815481529060010190602001808311611b3157829003601f168201915b505050505090806003018054600181600116156101000203166002900480601f016020809104026020016040519081016040528092919081815260200182805460018160011615610100020316600290048015611bec5780601f10611bc157610100808354040283529160200191611bec565b820191906000526020600020905b815481529060010190602001808311611bcf57829003601f168201915b505050505090806004018054600181600116156101000203166002900480601f016020809104026020016040519081016040528092919081815260200182805460018160011615610100020316600290048015611c8a5780601f10611c5f57610100808354040283529160200191611c8a565b820191906000526020600020905b815481529060010190602001808311611c6d57829003601f168201915b505050505090806005018054600181600116156101000203166002900480601f016020809104026020016040519081016040528092919081815260200182805460018160011615610100020316600290048015611d285780601f10611cfd57610100808354040283529160200191611d28565b820191906000526020600020905b815481529060010190602001808311611d0b57829003601f168201915b5050505050908060060154908060070154905088565b60025481565b60036000815480929190600101919050555060405180610100016040528060035481526020018781526020018681526020018581526020018481526020018381526020018281526020014281525060056000600354815260200190815260200160002060008201518160000155602082015181600101556040820151816002019080519060200190611dd792919061263b565b506060820151816003019080519060200190611df492919061263b565b506080820151816004019080519060200190611e1192919061263b565b5060a0820151816005019080519060200190611e2e92919061263b565b5060c0820151816006015560e082015181600701559050506040518061010001604052806003548152602001878152602001868152602001858152602001848152602001838152602001828152602001428152506006600083815260200190815260200160002060008201518160000155602082015181600101556040820151816002019080519060200190611ec592919061263b565b506060820151816003019080519060200190611ee292919061263b565b506080820151816004019080519060200190611eff92919061263b565b5060a0820151816005019080519060200190611f1c92919061263b565b5060c0820151816006015560e082015181600701559050506040518061010001604052806003548152602001878152602001868152602001858152602001848152602001838152602001828152602001428152506007886040518082805190602001908083835b60208310611fa65780518252602082019150602081019050602083039250611f83565b6001836020036101000a038019825116818451168082178552505050505050905001915050908152602001604051809103902060008381526020019081526020016000206000820151816000015560208201518160010155604082015181600201908051906020019061201a92919061263b565b50606082015181600301908051906020019061203792919061263b565b50608082015181600401908051906020019061205492919061263b565b5060a082015181600501908051906020019061207192919061263b565b5060c0820151816006015560e0820151816007015590505050505050505050565b600a8280516020810182018051848252602083016020850120818352809550505050505060205280600052604060002060009150915050806000015490806001015490806002018054600181600116156101000203166002900480601f01602080910402602001604051908101604052809291908181526020018280546001816001161561010002031660029004801561216d5780601f106121425761010080835404028352916020019161216d565b820191906000526020600020905b81548152906001019060200180831161215057829003601f168201915b505050505090806003018054600181600116156101000203166002900480601f01602080910402602001604051908101604052809291908181526020018280546001816001161561010002031660029004801561220b5780601f106121e05761010080835404028352916020019161220b565b820191906000526020600020905b8154815290600101906020018083116121ee57829003601f168201915b5050505050908060040154908060050154905086565b6009602052806000526040600020600091509050806000015490806001015490806002018054600181600116156101000203166002900480601f0160208091040260200160405190810160405280929190818152602001828054600181600116156101000203166002900480156122d95780601f106122ae576101008083540402835291602001916122d9565b820191906000526020600020905b8154815290600101906020018083116122bc57829003601f168201915b505050505090806003018054600181600116156101000203166002900480601f0160208091040260200160405190810160405280929190818152602001828054600181600116156101000203166002900480156123775780601f1061234c57610100808354040283529160200191612377565b820191906000526020600020905b81548152906001019060200180831161235a57829003601f168201915b5050505050908060040154908060050154905086565b60035481565b6005602052806000526040600020600091509050806000015490806001015490806002018054600181600116156101000203166002900480601f01602080910402602001604051908101604052809291908181526020018280546001816001161561010002031660029004801561244b5780601f106124205761010080835404028352916020019161244b565b820191906000526020600020905b81548152906001019060200180831161242e57829003601f168201915b505050505090806003018054600181600116156101000203166002900480601f0160208091040260200160405190810160405280929190818152602001828054600181600116156101000203166002900480156124e95780601f106124be576101008083540402835291602001916124e9565b820191906000526020600020905b8154815290600101906020018083116124cc57829003601f168201915b505050505090806004018054600181600116156101000203166002900480601f0160208091040260200160405190810160405280929190818152602001828054600181600116156101000203166002900480156125875780601f1061255c57610100808354040283529160200191612587565b820191906000526020600020905b81548152906001019060200180831161256a57829003601f168201915b505050505090806005018054600181600116156101000203166002900480601f0160208091040260200160405190810160405280929190818152602001828054600181600116156101000203166002900480156126255780601f106125fa57610100808354040283529160200191612625565b820191906000526020600020905b81548152906001019060200180831161260857829003601f168201915b5050505050908060060154908060070154905088565b828054600181600116156101000203166002900490600052602060002090601f016020900481019282601f1061267c57805160ff19168380011785556126aa565b828001600101855582156126aa579182015b828111156126a957825182559160200191906001019061268e565b5b5090506126b791906126bb565b5090565b6126dd91905b808211156126d95760008160009055506001016126c1565b5090565b9056fea265627a7a72315820f58da79efb1c177b082bf1228b2634ed22893ad2e0e01c33c813b073fd889e2f64736f6c63430005100032",
  "source": "pragma solidity >=0.4.21 <0.8.3;\r\n \r\n\r\ncontract HMSTests {\r\n\r\n    string public title;\r\n    address public CreatedTestBy;\r\n    uint public testCount = 0; \r\n    uint public lipidtestCount = 0; \r\n    uint public bloodtestCount = 0; \r\n    //mapping(address => LipidTest) public GetLipidTest_Adrs;\r\n    //-------------Lipid Test\r\n    mapping(uint => LipidTest) public GetLipidTestList; //by appointment Id;\r\n    mapping(uint => LipidTest) public GetLipidTest_Id; //by appointment Id;\r\n    mapping(string => mapping(uint => LipidTest)) public PatientLapidTestRecord;\r\n    //-------------Blood Group Test\r\n    mapping(uint => BloodGroupingRh) public GetBloodGroupingRhList; //by appointment Id;\r\n    mapping(uint => BloodGroupingRh) public GetBloodGroupingRh_Id; //by appointment Id;\r\n    mapping(string => mapping(uint => BloodGroupingRh)) public PatientBloodGroupingRhRecord;\r\n    \r\n    struct LipidTest{\r\n       uint tst_li_id;\r\n       uint prescription_id;\r\n       string cholestrolHDL;\r\n       string cholestrolLDL;\r\n       string triglycerides;\r\n       string totalCholestrolLDLHDLratio;\r\n       uint appointment_id;\r\n       uint date;\r\n       //bool isuidgenerated;\r\n    }\r\n\r\n    struct BloodGroupingRh{\r\n       uint tst_bloodG_id;\r\n       uint prescription_id;\r\n       string bloodGroup;\r\n       string rhesusD; \r\n       uint appointment_id;\r\n       uint date; \r\n    }\r\n    \r\n    event BloodGroupingRhCreated(\r\n       uint tst_bloodG_id,\r\n       uint prescription_id,\r\n       string bloodGroup,\r\n       string rhesusD,\r\n       uint appointment_id,\r\n       uint date\r\n    );\r\n    constructor() public{\r\n        title = \"This HMS is based on Blockchain\";\r\n        CreatedTestBy = msg.sender;\r\n    }\r\n    \r\n   // function setPatient(address _address) setPatientId{\r\n        \r\n    //}\r\n    \r\n    function AddLipidTest(string memory _patientUserId, uint _prescription_id, string memory _cholestrolHDL, \r\n    string memory _cholestrolLDL, string memory _triglycerides, string memory _totalCholestrolLDLHDLratio, \r\n    uint _appointment_id) public{\r\n        //address patientId = address(sha256(_patientUserName));\r\n        lipidtestCount ++;\r\n        GetLipidTestList[lipidtestCount] = LipidTest(lipidtestCount, _prescription_id, _cholestrolHDL, _cholestrolLDL, _triglycerides, _totalCholestrolLDLHDLratio, _appointment_id, now);\r\n        GetLipidTest_Id[_appointment_id] = LipidTest(lipidtestCount, _prescription_id, _cholestrolHDL, _cholestrolLDL, _triglycerides, _totalCholestrolLDLHDLratio, _appointment_id, now);\r\n        PatientLapidTestRecord[_patientUserId][_appointment_id] = LipidTest(lipidtestCount, _prescription_id, _cholestrolHDL, _cholestrolLDL, _triglycerides, _totalCholestrolLDLHDLratio, _appointment_id, now);\r\n        \r\n    }\r\n    \r\n    function AddBloodGroupingRh(string memory _patientUserId, uint _prescription_id, string memory _bloodGroup, \r\n    string memory _rhesusD, uint _appointment_id) public{ \r\n        bloodtestCount ++;\r\n        GetBloodGroupingRhList[bloodtestCount] = BloodGroupingRh(bloodtestCount, _prescription_id, _bloodGroup, _rhesusD, _appointment_id, now);\r\n        GetBloodGroupingRh_Id[_appointment_id] = BloodGroupingRh(bloodtestCount, _prescription_id, _bloodGroup, _rhesusD, _appointment_id, now);\r\n        PatientBloodGroupingRhRecord[_patientUserId][_appointment_id] = BloodGroupingRh(bloodtestCount, _prescription_id, _bloodGroup, _rhesusD, _appointment_id, now);\r\n        emit BloodGroupingRhCreated(testCount, _prescription_id, _bloodGroup, _rhesusD, _appointment_id, now);\r\n    }\r\n    \r\n    \r\n    \r\n    \r\n}",
  "sourcePath": "C:/Windows/system32/HMS/src/contracts/HMSTests.sol",
  "compiler": {
    "name": "solc",
    "version": "0.5.16+commit.9c3226ce.Emscripten.clang"
  },
  "schemaVersion": "3.3.4",
  "updatedAt": "2021-04-20T10:45:20.270Z",
  "networkType": "ethereum",
  "devdoc": {
    "methods": {}
  },
  "userdoc": {
    "methods": {}
  }
}